:10600000C00A0020E5650000E1650000E1650000D0
:106010003D830000E1650000E1650000E1650000EE
:10602000E1650000E1650000E1650000E165000058
:10603000E165000070CD0200E1650000E16500004F
:10604000E1650000E1650000E1650000E165000038
:10605000E1650000E1650000E1650000E165000028
:10606000E1650000E1650000E1650000E165000018
:1060700049900000E1650000E1650000E165000075
:10608000E1650000E1650000E1650000E1650000F8
:10609000E1650000E1650000E1650000E1650000E8
:1060A000E1650000E1650000E1650000E1650000D8
:1060B000E165000031BB0200E1650000CDC50200D2
:1060C0007DC5020079C50200E9BC0200C9C5020015
:1060D00081C50200A1C5020085C5020021C60200DB
:1060E000A1A0020069A2020009C60200E165000049
:1060F000D5810000E1650000E1650000E165000078
:10610000E1650000E1650000E1650000E165000077
:10611000E1650000E1650000E1650000E165000067
:10612000E1650000E1650000E1650000E165000057
:10613000E1650000E1650000E1650000E165000047
:1061400010B5054C237833B9044B13B1044800E073
:1061500000BF0123237010BD940E0020000000003A
:10616000841D030008B5034B1BB10349034800E03D
:1061700000BF08BD00000000980E0020841D030031
:10618000154B002B08BF134B9D46A3F5803A002109
:106190008B460F461348144A121A26F0F2FC0F4B96
:1061A000002B00D098470E4B002B00D098470020C2
:1061B000002104000D000D48002802D00C4800E02A
:1061C00000BF26F077FC2000290000F077F826F0C9
:1061D0005DFC00BF00000800C00A002000000000B5
:1061E00000000000940E002058290020000000004C
:1061F000000000007047704710B503682C4A23F474
:106200007F4323F00703934288B004D0294A934286
:1062100045D008B010BD0DF10F0104A81DF07EFBA4
:10622000014600B1FEE79DF8153008228DF81830C0
:106230009DF8143012208DF819309DF813308DF828
:106240001A30FF238DF81B30FE238DF81C309DF88B
:1062500012308DF81D309DF811308DF81E309DF8EC
:1062600010308DF81F3006AB1DF02CFB00B1FEE79F
:10627000114C20461DF0B4FA034600B1FEE7A022FF
:106280002078009311461DF0D1FA00B1FEE70222FA
:10629000207811461DF0F4FA0028BAD0FEE7022259
:1062A000054B114618781DF0EBFA0028B1D0FEE737
:1062B000A0000100A0000601C00A002008B502F0FD
:1062C000E0FEFFF797FF02F0E9FEFFF794FF02F010
:1062D00049F9F8E708B5044809F096FCBDE808401C
:1062E000024809F0C3BC00BF48D0020028D0020019
:1062F0000120704700B54FF48270C3B0FFF7F8FF7C
:1063000030B101A81DF066FA10B901A8FFF774FFBB
:1063100043B05DF804FB08B5012000F0A2F820208E
:1063200000F09FF8BDE80840402000F09AB808B59A
:106330000321802000F06AFF08214FF4C06000F0C4
:1063400065FF08214FF4F06000F060FF08213E2057
:1063500000F05CFF08212D2000F058FF002008BD50
:10636000194B10B51B68C3F30743012B10D1174B12
:106370004FF48022596E41F2640049034FF0040447
:1063800058BF42F264011A501148046058BF5A5075
:1063900001F014FD00F08EF801F0A0FC01F02CFDDE
:1063A00001F0BEFC01F0EAFC01F0EEFCFFF7BFFFDC
:1063B00001F0A4FC00F073F800F0C4F902F0FCFA5C
:1063C000BDE8104002F02AB80080E00F00800040D5
:1063D00020200140704708B502F0B4FB01F00EFD2B
:1063E00004F0A5FFBDE8084001F008BF08B501F0C2
:1063F00049FC01F053FCBDE80840FFF76BBF704754
:1064000070477047FFF776BF704701207047012043
:10641000704710B509F078FD0446FFF7F6FF002835
:1064200014BF2046002010BD38B502F057FD0446C9
:1064300009F078FD042810D002284FF0000508BFAD
:106440000124FFF7E4FF042809D0022808BF012433
:10645000002D18BF0024204638BD0125F1E7002497
:10646000F9E7082808B50DD004DC0138012809D95E
:106470000E2013E020280AD04028F9D1002304225E
:10648000194602E0042200231146184603E00422C4
:1064900000231146012001F095F9002008BD08B540
:1064A00001213A2000F026FBFFF735FFBDE8084048
:1064B00000F004B801213A2000F01CBB2DE9F047A0
:1064C00086B06C46424DDFF814810FCD0FC495E8BD
:1064D0000300012584E8030001213A2000F00AFBB3
:1064E0000121282000F006FB3A4B69464046029302
:1064F0008DF80E5001F098FA2B460422002102205C
:1065000001F060F92A4629460023022001F05AF9D9
:1065100002212B460846042201F054F904220321EB
:106520002B46022001F04EF94FF002132A4C0226AE
:10653000C4F83036A3F58033C4F82C361C23082762
:1065400042F2700A41F27009C4F834664FF44870A0
:10655000C4F81C3602F0AEFD44F80A70142002F0B4
:10656000A9FD44F80970232002F0A4FD44F80A7044
:10657000B921404601F0B2FA002330461A461946C6
:1065800044F8097001F01EF9002329461A463046E6
:1065900001F018F92B4631463046002201F012F97D
:1065A0002B4600220321304601F00CF9404601F051
:1065B0000DFA00212820C4F83016C4F82C16C4F8AF
:1065C0003416C4F81C1600F095FA06B0BDE8F08742
:1065D00078D0020000127A0000C0034000C00540DD
:1065E000FEE7000008B500F013F8064A064B07491D
:1065F0008B4201D3FFF7C4FD52F8040F43F8040B9C
:10660000F6E700BF881D0300C00A0020940E00209A
:10661000044B054A9A60D3F8882042F47002C3F80C
:106620008820704700ED00E000600000014B186812
:10663000704700BFD40A0020084B1B6F03F007030C
:10664000022B04D0032B05D0012B05D0FEE7044B11
:1066500018687047034BFBE7034870470080004011
:10666000D40A0020D80A0020002D310108B5FFF718
:10667000E3FF054B1B6FC3F303330133B0FBF3F0B0
:10668000024B186008BD00BF00800040D00A002007
:106690000048704700B4C404014B1868704700BF3D
:1066A000D80A0020054B1860054B1B6F03F0070349
:1066B000032B01D1FFF7DABF704700BFD80A0020D3
:1066C000008000400020704700487047002D3101D5
:1066D0004FF4004070474FF47A707047014B1868D0
:1066E000704700BFDC0A002028231B68B3F5C04FA9
:1066F00003D21968064A914203D0002303708360D5
:106700007047012202709A689B694260F7E700BFF8
:1067100007B0CD5E00230360704703680B60016023
:1067200070470000054A06491368184488428CBF28
:106730004FF0FF3310601846704700BFE00A00209A
:1067400000800020024B1968024B186808F04EBD0B
:10675000E80A0020E40A00207047000070B59400A9
:10676000224605460E4626F0F3FA431C02D018B125
:10677000064800E0064870BD22463146284626F00D
:10678000CDF90028034808BF0020F4E724E000F01A
:1067900021E000F010E000F013B5044601A801F07C
:1067A000EFF89DF80630012223804FF4807300201B
:1067B0006380054B9B680A3303F01F0302FA03F35F
:1067C000636002B010BD00BF0080E00F01F050B860
:1067D00008B501F039F8002008BD10B5044644EAB8
:1067E000010313F00303084609D1934201D10020AD
:1067F00010BD54F8231040F823100133F5E7920040
:10680000214626F09AF9F2E710B5044626F098FAE8
:10681000431C02D018B10C4800E00C4810BD0C4BD2
:1068200020469B680A3303F01F020123934023F0A4
:1068300003032344984201D10020EFE750F8042BD2
:106840000132F7D00348E9E724E000F021E000F04E
:106850000080E00F0EE000F008B500F019FE014BDB
:10686000186008BD48230020014B186800F014BED2
:10687000482300200A460139014401F00FBD000001
:10688000054A1368DB06FCD44FF04023D3F884009C
:10689000C0F38110704700BF8440004038B5104BF2
:1068A0000546D3F820310C4603F00303022B0BD02E
:1068B000032B0DD0012B0FD1FFF7B8FE052305B137
:1068C000286004B1237038BDFFF7E6FE0323F6E726
:1068D000FFF7FAFE0223F2E700231846EFE700BFB6
:1068E0000080004073B50D4600210E4B0191D3F896
:1068F0008041064604F00304012C08D0022C0BD082
:106900000EB1019B336005B1297002B070BD01A8C2
:10691000FFF7C4FF0D21F3E7FFF7D6FE21460190F4
:10692000EEE700BF0080004038B5174B0546D3F8AE
:1069300024310C4603F00703013B052B20D8DFE888
:1069400003F0030F171B0B13FFF770FE052305B1B0
:10695000286004B1237038BDFFF768FE0623F6E710
:10696000FFF79AFE0323F2E7FFF796FE0423EEE714
:10697000FFF7AAFE0223EAE7FFF7A4FE0723E6E7F4
:1069800000231846E3E700BF0080004038B5104BF5
:106990000546D3F840310C4603F00303022B0BD01D
:1069A000032B0DD0012B0FD1FFF792FE092305B168
:1069B000286004B1237038BDFFF790FE0823F6E786
:1069C000FFF789FE0A23F2E700231846EFE700BF2E
:1069D0000080004038B5134B0546D3F800320C4612
:1069E00003F00703013B032B18D8DFE803F0020A8A
:1069F0000E12FFF76DFE092305B1286004B1237064
:106A000038BDFFF76BFE0823F6E7FFF764FE0A23A5
:106A1000F2E7FFF72BFE0C23800AEDE70023184670
:106A2000EAE700BF0080004038B5104B0546D3F8B8
:106A300040320C4603F00303022B0BD0032B0DD086
:106A4000012B0FD1FFF744FE092305B1286004B1E3
:106A5000237038BDFFF742FE0823F6E7FFF73BFE41
:106A60000A23F2E700231846EFE700BF008000404A
:106A700038B5104B0546D3F860310C4603F00303DC
:106A8000022B0BD0032B0DD0012B0FD1FFF720FED3
:106A9000092305B1286004B1237038BDFFF71EFE3D
:106AA0000823F6E7FFF717FE0A23F2E7002318464C
:106AB000EFE700BF008000400D4B10B4D3F8203248
:106AC0000A4603F00303012B0AD0022B0CD008B1B5
:106AD000002303600AB1002313705DF8044B704774
:106AE0005DF8044BFFF7DABE5DF8044BFFF74EBFCD
:106AF00000800040430910B507D0012B0FD00A4C8D
:106B00000A4A022B14BF2346134600F01F0041B16E
:106B100003F58053012202FA00F0186010BD044B07
:106B2000F3E703F50053F5E760820040688000401A
:106B300064800040B0F5007F18D005D880B1B0F572
:106B4000C07F0DD000200FE0B0F5207F14D0B0F54D
:106B5000607FF7D10B4BD3F88000C0F3011003E046
:106B6000084B186FC0F3033001307047054BD3F862
:106B70009000C0F30460F7E7024B186FC0F3802069
:106B8000F2E700BF00800040002313B53E28044612
:106B9000019300F0B18042D82B2828D01FD8232899
:106BA00013D00CD8202849D004D8002846D001980A
:106BB00002B010BD212808D022283FD0F7E72928AD
:106BC00000F290802828C0F08380FFF74FFD024636
:106BD0004FF42070FFF7AEFFB2FBF0F071E0312808
:106BE00010D82F28F1D22D2800F0818056D9FFF738
:106BF0003DFD02464FF42070FFF79CFFB2FBF0F022
:106C000040085EE03C2855D83A28DED2382864D0C7
:106C10003928CCD1002101A8FFF786FEC7E7B0F5DF
:106C2000007F50D01BD8522852D00AD84D2805D00A
:106C300002D83F28C9D0BAE74F28B8D3FFF716FDCE
:106C40003FE080283BD004D8A0F16004012CF5D9A6
:106C5000ADE7B0F5807F21D0B0F5C07FADE7B0F5EE
:106C6000A06F3AD010D8B0F5607F2CD006D8B0F520
:106C7000207FAAD0B0F5407FB9D098E7B0F5806FFB
:106C800026D0B0F5906FC4E7B0F5D06F2FD00AD8FA
:106C9000B0F5B06F26D0B0F5C06F88D1002101A843
:106CA000FFF774FE83E7B0F5E06F25D0B0F5F06F25
:106CB0007FF47DAF002101A8FFF7DAFE77E7FFF749
:106CC000BBFC019073E7FFF7B7FC0246204681E763
:106CD000002101A8FFF7E2FD69E7002101A8FFF705
:106CE000EBFE64E7002101A8FFF7FCFD5FE7002150
:106CF00001A8FFF76FFE5AE7002101A8FFF794FEF5
:106D000055E7000008B58020FFF73EFF044B98428E
:106D10009FBF42F270034FF48031024AD15008BD48
:106D2000005A62020080004038B5054641F268030F
:106D30004FF400300D4AD0500020FFF7FBFE41F623
:106D400071320B4B6843DC690A4DDA639A68A842DA
:106D500004F4803422F4401203D9012918BF42F40C
:106D600080129A600CB10022DA6338BD00800040C6
:106D700000000340005A620208B5FFF789FCBDE835
:106D800008400021FFF7D0BF002307B5B0F5807F92
:106D90008DF8073010D031D82D287DD012D82A2870
:106DA00043D007D82438032833D99DF8070003B00F
:106DB0005DF804FB2C28F8D10DF107010020FFF746
:106DC000E5FDF2E73E2840D009D8382874D03D28A8
:106DD000EBD10DF107010020FFF74AFEE5E752284D
:106DE00017D08028E1D1374B1B6F03F00703013B1D
:106DF000032BDAD8DFE803F04844425CB0F5C06FFB
:106E0000DAD018D8B0F5906F40D008D8B0F5806FC0
:106E1000CBD10DF107010020FFF740FDC5E7B0F52C
:106E2000A06F49D0B0F5B06FBFD10DF107010020C0
:106E3000FFF758FDB9E7B0F5F06FCAD00BD8B0F541
:106E4000D06F29D0B0F5E06FAFD10DF10701002070
:106E5000FFF7EAFDA9E7B0F5006F17D0B0F5086FAE
:106E6000A3D1184BD3F8003103F00303022B19D040
:106E7000032B1BD0012B1DD1FFF70EFC032300E0D9
:106E800005238DF8073090E70223FAE70DF107019B
:106E90000020FFF749FD88E70DF107010020FFF70B
:106EA00099FD82E7FFF71AFC0823EAE7FFF70AFCDF
:106EB0000723E6E70123E4E70DF107010020FFF7D0
:106EC000FBFD72E70080004008B5FFF75DFF082872
:106ED00004D0092805D04FF6FF7001E0094B18884F
:106EE00008BD41F264034FF40011074A4FF6FF70EA
:106EF000D150064B5B6A13F0010F18BF4FF4FA70C4
:106F0000EEE700BF080B0020008000400040024078
:106F100070B504468020FFF737FF032800F0868015
:106F200041F264034FF40021454AD15045F60E0367
:106F300002F58042C2F88030022141F22803D1508C
:106F400042F228030121D150916D11F48031FBD11F
:106F5000637820781B0543EA0063A079657C0343CE
:106F6000E07843EA0043207943EA0033607943EA5A
:106F7000801313619369E07A03F000430343E079DF
:106F800043EA8063207A43EA0063607A43EA00437D
:106F9000A07A43EA00239361637B126A002B18BF37
:106FA0000821207B22F00D0243EA020343EA80031A
:106FB00041EA0301A27B234B4FEA42161962207C6F
:106FC00035D1996AE27B21F0330141F0010131436F
:106FD00041EA0211996219461B4A9E6D32EA060681
:106FE000FBD1022241F228069A511A658B6D5B0093
:106FF000FCD40B69A27823F4700343EA02530B61BB
:107000004FF0004241F21803CA5018B942F2280367
:107010000222CA5025B942F228030121094AD1505F
:10702000A37C1BB1074B094AC3F8802070BD9A6A44
:1070300022F033022A43324342EA40029A62EFE7E7
:107040000080004000C0004003000140F1A7FFFFA6
:10705000F0B541F264034FF480071B4E4178847809
:10706000C2780578F7504FF4D156184B02275E626C
:1070700041F204064F299F5142F204064FF00107E6
:1070800028BF4F219F511E69F603FCD441EA052118
:1070900059611201417942EA04220A43017942EA24
:1070A00041029A60C2798179120142EA4112417A21
:1070B0000A43017A42EA41025A60827A12B16FF4BD
:1070C000D1525A62F0BD00BF008000400000024073
:1070D000014B1880704700BF080B002010B5044614
:1070E000FFF7DAFA41F264034FF40011094AD15074
:1070F0000222094B5A609A6812F48032FBD1012CAB
:1071000018BF5A624FF0000208BF5C62024B5A601F
:1071100010BD00BF00800040004002400029CCBFED
:1071200001210021FFF700BE10B50446FFF724FE41
:1071300000F054F841F270034FF480310C4A013CE6
:10714000D150106F20F4704040EA04301067FFF710
:107150008DFA0446FFF794FBC0F102012046FFF7C9
:10716000DDFF00F041F8BDE81040FFF7CBBD00BFE8
:1071700000800040B0F5007F1AD004D850B1B0F5BF
:10718000C07F07D07047B0F5207F1CD0B0F5607F7E
:1071900003D070470846FFF7C7BF0F4A0139D2F83E
:1071A000803023F0300343EA0111C2F880107047A9
:1071B000094A0139D2F8903023F0F85343EA0161CB
:1071C000C2F890107047044A0139136F23F48063AA
:1071D00043EA8121116770470080004002214FF48B
:1071E0002070FFF7C7BF000008B54FF4C070FFF76D
:1071F000CBFCBDE80840044988428CBF0221012134
:107200004FF42070FFF7B6BF80F0FA02B0F5807F30
:1072100070B50C460DD043D82D2800F0058119D843
:107220002A2861D003D82438032845D970BD2C28DA
:10723000FCD1083CE4B2022C8CBF00218B4B8C4A61
:1072400098BF195DD2F8403123F003030B43C2F815
:107250004031EBE73E2861D015D8382800F0F580A2
:107260003D28E3D1083CE4B2022C8CBF0021814BC5
:107270007F4A98BF195DD2F8603123F003030B43B6
:10728000C2F86031D2E7522816D08028CED18B1EAA
:10729000052B00F2B580DFE803F0B09DB36AB3AD13
:1072A000B0F5C06FC5D02ED8B0F5906F00F0AB80B0
:1072B00013D8B0F5806FB9D1023CE4B2032C8CBF77
:1072C00000216D4B6A4A98BF195DD2F8203123F036
:1072D00003030B43C2F82031A8E7B0F5A06F00F01C
:1072E000B480B0F5B06FA1D1022C03D0A4F10D038E
:1072F0005C425C415E4AD2F8803123F003031C43B8
:10730000C2F8804192E7B0F5F06FABD017D8B0F576
:10731000D06F00F08980B0F5E06F87D1083CE4B20F
:10732000022C8CBF0021554B514A98BF195DD2F8F1
:10733000403223F003030B43C2F8403276E7B0F546
:10734000006F60D0B0F5086F7FF470AFCC1EE4B270
:10735000052C8CBF00214A4B454A98BF195DD2F8D5
:10736000003123F003030B43C2F800315EE7002530
:1073700002260121022000F03DF9FFF7FDFCFFF796
:107380002DFF4FF4803141F27003394AD150136F11
:1073900023F0070333431367FFF768F90646FFF747
:1073A0006FFAC0F102013046FFF7B8FE012100205C
:1073B00000F05CF9FFF718FFFFF7A4FC002D7FF445
:1073C00035AF032C7FF432AF42F2280301212D4A5E
:1073D000D1502BE741F264034FF40021244A0326E5
:1073E000D15041F228020121264B9D6A9950C5F3E4
:1073F0004005BEE700250426BBE700250126B8E7C7
:1074000000252E46B5E7023CE4B2052C8CBF0021D6
:107410001D4B174A98BF195DD2F8243123F007039A
:107420000B43C2F8243101E7083CE4B2042C8CBFC2
:107430000021164B0E4A98BF195DD2F8003223F096
:1074400007030B43C2F80032F0E60D2C0CD00E2CD3
:107450000CBF02210021064AD2F8203223F0030398
:107460000B43C2F82032E1E60121F4E7B8D0020074
:1074700000800040B8D00200B4D00200B8D00200B2
:10748000C6D0020000C00040BBD00200C1D0020044
:10749000EFF3108072B6704700B962B67047EFF331
:1074A0001180302383F31188704780F3118870476F
:1074B000024B9B6803EB80000164704700ED00E025
:1074C000F0B50024059D9DF818709C4202D10C4B2C
:1074D0009A60F0BD37B18C420ED250F8246042F869
:1074E000246005E08C4252F8246003D2002EF4D0D0
:1074F0000134EAE7002EFBD142F82450F8E700BF40
:1075000000ED00E010B5234B70B9186041F2640142
:107510004FF40030204A505020494968012902D1D7
:10752000D2F800211A6010BD1B68002BFBD01B4C49
:107530006268012AF7D0184A8020C2F80031FFF7AC
:1075400023FC052820D14FF4C070FFF7F3FA01287F
:10755000044604D102214FF4C070FFF70BFE42F243
:10756000100207210D4B995041F20402012199505C
:107570001A69D207FCD5012CD5D12146BDE81040AF
:107580004FF4C070FFF7F6BD41F204030122E25050
:10759000C9E700BF101500200080004000C0014076
:1075A00010B5044610B10020FFF7ACFF0C4A136978
:1075B00043F00403136101F04DF9FFF769FF25F073
:1075C000CFFBFFF769FF01F059F924B1BDE8104086
:1075D0000120FFF797BFBDE81040FFF747B800BF95
:1075E00000ED00E0FFF7DCBF0020FFF78BBF0120BC
:1075F000FFF788BF38B504461A4A1368D806FCD48A
:107600004FF04023D3F88430C3F381139C4228D039
:10761000FFF712F8012C054602D12146FFF77EFD47
:10762000FFF736FF4FF000710F4A4FF04023116013
:107630004FF48062611E8A401A675A6E910103D42A
:10764000D3F88420920609D5FFF726FF022C08D133
:107650002846BDE838400021FFF760BDD3F88420FC
:10766000EBE738BD844000406460004010B50C4634
:1076700008B9FEF7E1FF074B21461B783BB1064BEB
:10768000984204D80120BDE81040FFF7B3BF0220A4
:10769000F9E700BF14150020005A62020278034B7C
:1076A000012100201A70FFF7E1BF00BF1415002070
:1076B0004FF04022536F417823F4407343EA012393
:1076C000536770474FF04022D36E017923F03003A7
:1076D0000B43D3667047000041F264034FF0004152
:1076E000174A10B5D150012141F204024AF6CD34B7
:1076F000144B99505A6C1C640A4088B99868C407A6
:1077000005D542F208001950D96AC807FCD542F2E3
:1077100004010120585012B10A4B0B4A1A6410BDE3
:10772000D96A0907FCD442F224012020585041F2C2
:1077300008010120585003494B6A9B06FCD5EAE733
:1077400000800040004009403254FFFF38B54FF040
:10775000004141F26403184A184CD150012241F211
:107760000403E2504AF6CD33656C23644378154038
:10777000934013434FF04022D363A368827823F0F1
:10778000740343EA0213C278002A14BF04220022C1
:107790001343A3600279837943EA02232361427988
:1077A000C379007843EA02236361FFF795FF0DB1C7
:1077B000034B2364012038BD008000400040094095
:1077C0003254FFFFF0B54AB1012530241D4E8D40E3
:1077D00004FB00640BB341F21006A551302444436E
:1077E000072904F1804404F5703419D80F2765681F
:1077F0008E00B74025EA070502FA06F635436560B4
:1078000052B9012202FA01F130220E4C02FB004073
:10781000A3B141F21003C150F0BD42F21006DCE703
:107820000F2701F18045083DE668AD00AF4026EA2C
:10783000070602FA05F53543E560E1E742F2100379
:10784000E9E700BF00C0034041F268034FF4003194
:10785000054AD15041F67132044B0121DA6342F2FC
:107860000C029950704700BF0080004000000340A8
:1078700041F67132074B0121DA6342F20C02995052
:1078800000224FF40031DA6342F26803024AD15019
:10789000704700BF00000340008000404FF090435D
:1078A0005A6812B19A6A002AFAD17047CB784A789E
:1078B00010B55B010C7843EA82030A79234343EA5B
:1078C00002130C22424302F190421363012C02BFC7
:1078D0008A78024B43F8202010BD00BFE8800340A7
:1078E00008B54FF090435A6802B960B15B680BB1BC
:1078F000FFF7D4FF4FF0904130B10120074B1860E3
:10790000FFF7CCFFC86008BDFFF7C8FF0223CB60BC
:10791000FFF7C4FF0122024B1A60F4E7041000488D
:10792000042000484FF090435B6870B50BB1FFF73F
:10793000B5FF0121104B0679196083784578002B3B
:10794000C37814BF02240024002B14BF0422002299
:107950004379DB0043EA06132B43234313434FF0E1
:1079600090429360054B19600378002B14BF0B46BF
:107970000223D36070BD00BF0420004804100048FB
:1079800041F264034FF48031064AD150064B5B69E3
:10799000C3F38512827003F03F021B0B4270037029
:1079A000704700BF0080004000C0074038B5054662
:1079B000144621B94FF42070FFF7E6F8014601396B
:1079C0006400B1FBF4F10902E96138BD41F204033E
:1079D0000122C25040F6AA6341F20502436100232E
:1079E0008360C365C26042F248020C490361C3610F
:1079F000C36481500A4A8365904202D00949884293
:107A000007D19042036502D0064B984201D1002372
:107A1000436542F204030122C2507047FFFF010098
:107A200000C005400000064038B50D460446FFF78B
:107A3000CDFF41F204030122A97BC2502A8A836848
:107A4000002942F0010214BF4FF48061002113436A
:107A50002A7D0B43002A14BF4FF00052002283609E
:107A6000836813438360AB7C5BB11A4AEB7C904222
:107A700027D1A2F51032C2F88C31E36D43F08003B8
:107A8000E3652B7BD5E9011243F48053E360204684
:107A9000FFF78CFF6B7B0BB1102363616B7D1BB118
:107AA000A36843F48033A360AB7DEA7D1B07120516
:107AB00003F0E04302F4E0021343A3652B78636113
:107AC00038BD054A904204BFA2F52032C2F89C316D
:107AD000D3E700BF00C005400000064083695A0696
:107AE000FCD5C16383699B06FCD5406AC0B2704770
:107AF00038B50446054D1EF07DFB0FCC0FC594E84C
:107B0000030085E80300002038BD00BF18150020E1
:107B100047F6FF739A42F0B55ED002295ED8304B2B
:107B2000CE0013F8311098190129857819460DD126
:107B3000C3785B1B23B1416831F91310914202DC19
:107B4000E818C0B2F0BD013B1BB2F3E74068002863
:107B5000F8D0B0F90030934204DBB0F90230934220
:107B6000B8BF13468288FF2A19BFC8242827B0F956
:107B70000640B0F90870A4EB03040CBF01220022F8
:107B800094FBF7F414448A19567824B2721EA24268
:107B9000A8BF22464FF47A7700EBC201CC888968EF
:107BA000013213FB041112B221EAE17101F5FA71FD
:107BB000B242B1FBF7F104DA00EBC204A4888C42B4
:107BC000EAD200EBC20232F8040C884228BF084611
:107BD000A84238BF2846B4E7FF20B3E70020B1E74A
:107BE000181500200229F0B543D8244B03EBC1043B
:107BF00013F831306668012B0BD1E178A3789142FC
:107C000094BFC3EB0103C3EB0203DBB236F91300ED
:107C1000F0BD76B3B6F902008242F9DDE378B6F939
:107C20000050934227D9002164780436013CE4B225
:107C300097B2CBB29C424FEAC10306D906EB030CC4
:107C4000BCF808C00131BC45F3D2F1184FF47A7387
:107C500053434A68B1F902409B1A022294FBF2F2A4
:107C6000134493FBF4F39D4205DB9842D0DC18B239
:107C7000CEE70348CCE72846CAE700BF1815002026
:107C80000080FFFF08B50448FFF732FFBDE8084059
:107C900001201EF0B1BA00BFCCD002007FB5142283
:107CA000002101A824F06DFF02230B4A8DF8043057
:107CB000029204228DF80D308DF8133005230DEB60
:107CC00002014FF0FF308DF80E208DF814301EF0B9
:107CD00001FB07B05DF804FB006A180007B56B46AE
:107CE000054A1068516803C36846FFF72FFD00205E
:107CF00003B05DF804FB00BF50D102004FF04022FA
:107D000013B50024536F684643F001035367009492
:107D10008DF80440FFF7D6FC204602B010BD0000ED
:107D200070B586B001AA1546114B03F11006144632
:107D300018685968083303C4B3422246F7D14FF696
:107D4000FF7219889B782180A3700A4B0A481B8810
:107D5000934208BF7823DBB28DF80D308DF80E30DA
:107D6000FEF7A0FC2846FFF7D3F8002006B070BD50
:107D700058D102000001E00F00F0490208B50120CF
:107D8000FFF7ACF9002008BD1FB50B4A01AB106826
:107D9000516803C31189927A19809A70252301A82A
:107DA0008DF80530FFF754F96420FFF791F90020B2
:107DB00005B05DF804FB00BF6BD102006FF0040258
:107DC000502110B50A480B4C12F0800FD3B21BBFE4
:107DD00003F00F03043BA3181B1802F101020CBFB0
:107DE00083F800131976402AEED1002010BD00BFA1
:107DF00000ED00E000E100E000F07AB838B500F0F6
:107E0000A1FE0446D8B900F099FF4FF41673584309
:107E10000C4B00F5742000F23F20B0FBF3F022463B
:107E2000094B0A4D18600A4B196845F822000132C7
:107E30000A2AFAD100EBC002084410441860204618
:107E400038BD00BF40420F006C1500203C150020DB
:107E50003815002070470000012208B5034B1A7046
:107E600000F060FF024B186008BD00BF3415002011
:107E700068150020F8B5144C23781BB300F052FFAE
:107E8000124B134D1B68134EC01A08BF0120124B32
:107E9000124F18602B7856F8232046F82300111A49
:107EA0003A680F48521A0A213A600932B2FBF1F2DD
:107EB0000133DBB20260B3FBF1F201FB12332B7032
:107EC00000232370F8BD00BF341500206815002082
:107ED000641500203C1500203015002038150020C6
:107EE0006C150020014B1868704700BF6C1500200E
:107EF00020230D494FF4002081F82C3341F2640314
:107F00000A4AD05042F27400094B0A4A1A5042F20F
:107F100070001A504FF48050C1F88401486041F25B
:107F200074015A50704700BF00E100E0008000403B
:107F300000C00040010000A0054B064A1B78916D6F
:107F4000C90700D513B10028F9D170470120704747
:107F50008415002000C000402DE9F843914B1E6FAE
:107F60009D6A9C6AF10705F0020504F0010452D5F0
:107F700042F2700201279F508B4ADFF8488292F844
:107F80000090B9F1000F00F0F9800021117098F80D
:107F90000020BA4200F2ED8042F2280202219F50F6
:107FA00041F2280299509A6DD203FCD47F495A6B52
:107FB000096822F470620A435A637D487D4A9969D0
:107FC0000068126821F47F01024321F47F410A43D3
:107FD0009A617948794A19691268006821F47F61C9
:107FE00021F00F0102430A431A6175499A69096831
:107FF00022F0FF020A439A610222002D40F0B38072
:1080000042F228015A50674B0122002C00F0AE804A
:1080100041F228015A5016F000517CD042F2700211
:108020004FF0010C5F4B624F995066495E4ADFF892
:1080300090E182F800C00A7862440A705A6B5B498A
:1080400002F47060086098695A4900F47F40086043
:10805000996901F47F0139609F69FFB2CEF8007021
:108060001F69DFF858E107F47C67CEF800701F69DC
:10807000DFF844E107F03F07CEF8007042F228072E
:1080800043F807C041F228074FF0020C43F807C03D
:108090004FF0004C43F807C09F6DFF03FCD442F241
:1080A00028074FF0004C22F4706242F40072B0F5E1
:1080B000C84F43F807C05A6302D8B1F5C80F0CD9AE
:1080C000384A41499369096823F47F0323F47F43C5
:1080D00043EA012343EA01439361324B3B491A6966
:1080E000096822F47F62880822F00F02024342EA04
:1080F00080121A619A6922F0FF020A439A610222F1
:10810000002D42D142F228015A500122002C3FD0CA
:1081100041F228015A50002E23DA42F270024FF049
:108120000041204B99502A4A1278D2B142F22802DB
:108130000121995041F22802022199509A6DD203EF
:10814000FCD441F218024FF000419950022215BBB5
:1081500042F228015A50134B0122FCB141F228018E
:108160005A50BDE8F88341F228014BE742F228015A
:1081700050E7FFF76FFE164B1F704CE7FFF77AFED4
:1081800000F0BEFA88F8009045E741F22801BBE70D
:1081900042F22801BEE741F22801DBE742F2280162
:1081A000DEE700BF00C000408415002088150020D5
:1081B000801500207C150020781500207415002003
:1081C0007015002085150020100B00200C0B0020DE
:1081D00086150020FFF7C0BEBFF34F8FBFF36F8F30
:1081E000054A536A23F480335362D2F8943023F063
:1081F0000103C2F89430704700ED00E070B5FFF75E
:10820000EBFF1E4C1E481F4B844208BF4FF08042BC
:10821000196B1CBF20F01F02203A21F0FF0141F032
:10822000A001B2F1005F196309D3174D174E2968F9
:1082300042F0010299600131DE601A6129608442D6
:108240000CD01148124A016822F01F0242F00302CA
:108250009960DA600F4A01311A610160BFF34F8FF4
:10826000BFF36F8F05225A600B4A536A43F4803381
:108270005362BFF34F8FBFF36F8F70BD8C0E002022
:10828000AC0C002090ED00E08C15002003000020D5
:10829000AB0E0020E1FFFF3F00ED00E010B51446FB
:1082A000FFF79AFF1F2C194B1ED91A6BC40622F434
:1082B0007F4242F4807218BF20F01F00144C1A63F2
:1082C00018BF2030CA0618BF21F01F01226820F015
:1082D0001F0021F01F019A6040F0030041F00301EC
:1082E0000132D86019612260BFF34F8FBFF36F8FE7
:1082F00005225A60074A536A43F480335362BFF33E
:108300004F8FBFF36F8F002010BD00BF90ED00E0D6
:108310008C15002000ED00E0BFF34F8F0549064BA0
:10832000CA6802F4E0621343CB60BFF34F8F00BF13
:10833000FDE700BF00ED00E00400FA0508B5FFF717
:10834000EBFF08BD034B1B78002B14BF012002205C
:10835000704700BFB81500200329F8B598BF124B2D
:1083600006460F4694BF5C5C0024032805D8DFE86E
:1083700000F002080B0E44F002040C4B1D684DB9CE
:10838000F8BD44F00804F8E744F02004F5E744F0B1
:108390008004F2E76B681A68144203D05B683946C0
:1083A000304698472D68EAE776D10200B4150020E0
:1083B000F8B5FFF76DF8144C07462378134D83B1D9
:1083C000134E33781BB100F081FA00233370002084
:1083D00000F09AFA18B10023237000F09FFA237876
:1083E0006BB901212878FFF7B7FF01232B702A789A
:1083F000084B38461A70BDE8F840FFF74DB8012227
:10840000054B1A70F3E700BFB2150020A815002035
:10841000B0150020A9150020B315002070B5FFF796
:1084200037F8114D06462A788AB900F08BFB0446CE
:1084300020B13046FFF730F8204670BD00F07EFCDA
:108440000A4B18600A48FEF765F90A4B1C6000F0F9
:1084500075F900F097FA084B0024186001233046A4
:108460002B70FFF719F8E7E7B1150020BC150020C5
:10847000B4150020C0150020AC150020F8B50E463C
:108480000446FFF705F8002E14BF0121FF21164A0C
:108490000546601E135C154C0B4413542278012AC8
:1084A0001CD9FFF74FFF8242074617D9104E337889
:1084B0001BB100F00BFA002333700E4A137843B15E
:1084C000002313700C4A0120137000F01DFA00F015
:1084D00025FA39462078FFF73FFF27702846BDE888
:1084E000F840FEF7D9BF00BFB8150020A81500203E
:1084F000B0150020B2150020B315002010B50446B9
:10850000FEF7C6FF002C14BF0121FF21034A137898
:108510000B441370BDE81040FEF7BEBFBA15002033
:1085200038B541600446FEF7B3FF054621460448CE
:10853000FEF7F3F82846BDE83840FEF7ADBF00BFB0
:10854000B4150020054B1B685843054B00F57420FB
:1085500000F23F20B0FBF3F0704700BFBC150020D5
:1085600040420F002DE9FF47FEF792FF0446FDF75A
:1085700050FF002800F08B80564FDFF87C813D468D
:108580003B782BB1544A1378013B137000233B70A6
:10859000FFF7D8FEB0B14FF001090238484518D8AE
:1085A00003A9002000F08AFB824690B94B4B039A46
:1085B0001B689A4271D8484A85F8009013780133B5
:1085C000137006E02B7823B1434A28701378013BDF
:1085D0001370FFF7B7FE0128064604D9404B1B78FD
:1085E0000BB900F035F9DFF8149199F80000CA468C
:1085F000B04207D03B4B1B7813B93146FFF7ACFEB6
:1086000089F80060012E0CD9354E33784BB9364BC2
:108610001B7823B900F054F90122344B1A7001235E
:10862000337099F8000000F097F900E000BF204691
:10863000FEF732FFFEF72CFF0446404600F0BCFA7E
:10864000FDF7F2FE064600289AD1254B1A7872B142
:108650001870264F234B18703B7813B100F036F991
:108660003E70002000F050F948B300F057F92B7825
:108670002BB1194A1378013B137000232B70002192
:108680009AF80000FFF768FE00238AF800302046C1
:10869000FEF702FF04B0BDE8F087154B1E6800F03E
:1086A00075F903993044884285D20223091ACDE92D
:1086B00000A3104A5346404600F0A6FA89E701207D
:1086C00000F04AF92046FEF7E7FEFEF7E1FE044619
:1086D000C7E700BFBB150020B8150020AC1500206F
:1086E000B2150020B3150020BA150020B0150020E7
:1086F000C0150020B183000090150020A8150020AF
:1087000038B50A4D2B787BB1094C237863B100F062
:1087100005F9084B01211878FFF71EFE01232B7085
:108720000023054A2370137038BD00BFA815002030
:10873000B2150020A9150020B3150020F7B50024BC
:10874000022302A800F8084D8DF805308DF804408A
:108750004FF40025FEF7A2FF8DF8054041F26404B6
:1087600001A8FEF7A5FF344A344B116F01F0070151
:108770001960D2F82031D2F8240115514FF4003598
:10878000155102F5A0329269032900F0070002F0AA
:10879000020247D003F003039C1E63426341022898
:1087A00008BF43F001032649264C0B7062B3224AEE
:1087B0003BB9D2F8003103F00303581E4342434152
:1087C0000B70D2F8003103F00303022B2CD0032BE3
:1087D0002DD0012B2ED1FDF75FFF00271A4B02464B
:1087E000DB68461EC3F30B030133184803EB830118
:1087F000E0FB016700233046394623F0B5FFFFF761
:10880000A1FE2368184420602320FFF79BFE236805
:10881000184420606420FFF795FE23681844206008
:1088200003B0F0BD0123BAE7FDF758FFD5E7FDF728
:1088300049FFD2E70020D0E700800040FC23002061
:10884000C6150020C815002000C0014040420F009E
:10885000FEF7CABE074B1A7852B100221A70064AB8
:10886000136F23F0070343F001031367FDF7FEBE08
:10887000704700BFC4150020008000400D4B10B5AC
:108880001B78B3B1022000F0CFFB90B100F044FAA6
:1088900078B1094B9A6DD20302D5DB6D9B0708D4E2
:1088A0000124064B1C70FFF7D7FA41F22803024A55
:1088B000D45010BDC615002000C00040C5150020D2
:1088C0000122014B1A707047C415002038B50B4BBC
:1088D0001B788BB10A4D2A7862B90A4CA36DDA0372
:1088E00002D5E36D9B0707D4FFF7B6FA41F22803E0
:1088F0000122E25000232B7038BD00BFC6150020B6
:10890000C515002000C00040034B1B780BB1FFF7DA
:1089100013BB0120704700BFC615002008B5FEF745
:1089200066FE0A4A0A49136F096823F007030B43DE
:108930001367084B1B782BB142F22803012102F583
:108940008042D150BDE80840FDF790BE0080004055
:10895000FC230020C615002002280AD003280BD0D3
:1089600001280CD1064A136923F00403136130BFB8
:1089700070470020FEF714BE0020FEF733BE70479C
:1089800000ED00E04FF4C870FFF7DCBD08B5054B03
:10899000187818B1FFF7A6FA00EBD000024B1B685D
:1089A000184408BDC6150020C81500200122014B3F
:1089B0001A707047C6150020094B07B5986800F17A
:1089C0006043B3F5004F07D30023CDE900335023B4
:1089D000044A1946FEF774FD03B05DF804FB00BFBE
:1089E00000ED00E000160020104A30B51368416128
:1089F0001546ABB91060836011E0091B9C684161AA
:108A00001A467CB123465C698C42F6D9002CF4D01E
:108A100052B19060836013B15A69511A596130BDE7
:108A20000022F0E72346F4E72860F3E75817002018
:108A300010B500F0A1FA094B094A196831B1136861
:108A4000C41A4B69A34203D31B1B4B61106003E0A4
:108A5000C01A002310604B6110BD00BF58170020E2
:108A60004417002038B50F4D02202B685C690E4B6F
:108A70001B681C4400F0B4FA204600F085FA00237D
:108A80000A492A680B70D088800702D501230B7031
:108A900038BD9268002AFBD050690344012BF2D9FB
:108AA000F6E700BF58170020441700204C1700209D
:108AB00070B59DF81450164605710025049A85601E
:108AC000BDF818500446C5800260C0E903360D4663
:108AD00029B961610BB11146984796B13546FEF749
:108AE000DEFC0646FFF7A4FF29462046FFF77CFF81
:108AF000054B1B68A34201D1FFF7B4FF3046FEF7D8
:108B0000D4FC002070BD00BF5817002000210C4A83
:108B100013687BB183420AD1836879B18B60836823
:108B20001BB15A6941690A445A61002070471946CD
:108B30009B68EEE70028EFD0022070471360EEE755
:108B40005817002070B5FEF7AAFC144E054634787D
:108B5000FCB9134B1C60134B1C60134B1C8000F0C2
:108B6000C9F9012000F03CFA00F088FA0F4B0246E8
:108B7000186020B92846FEF798FC232070BD2346D4
:108B80000B4840F2E73123F0EFFD0A4B1860012358
:108B900033702846FEF789FC0020EFE740170020DD
:108BA00058170020441700204E17002054170020AB
:108BB00018FCFFFF481700202DE9F0410546F8B1E9
:108BC000FEF76DFC0F4F0646FFF732FF2846D7F839
:108BD0000080FFF79BFF044628B13046FEF765FC96
:108BE0002046BDE8F081A8453B6803D123B1FFF7DB
:108BF00039FFF2E7002BF0D1022000F0FDF9ECE79D
:108C00002224EDE758170020F0B50D4685B0164632
:108C10001F46044680B1FFF7CFFFBDF82C3000227D
:108C200002939DF828302946CDE90073204633464B
:108C3000FFF73EFF05B0F0BD2220FBE738B50C463C
:108C4000054698B191B100230B70FEF728FC012175
:108C5000074B1B680BB122781AB1FEF726FC0020E7
:108C600038BD9D420CBF21709B68F3E72220F7E7D7
:108C700058170020F0B51F46002387B00D46164652
:108C80008DF817300446A0B10DF11701FFF7D6FF9C
:108C90009DF817207AB9BDF83430294602939DF823
:108CA00030302046CDE900733346FFF701FF07B0AF
:108CB000F0BD2220FBE70320F9E70000F8B50746E6
:108CC0000E46FEF7ECFB00240546114B1B6823B94A
:108CD0002846FEF7EAFB1B2015E05A691444DA889F
:108CE000BA4213D100F048F90A4F3B68C01AA042BB
:108CF0000AD200F041F93B68C01A201A30602846B9
:108D0000FEF7D3FB0020F8BD0020F7E79B68DEE705
:108D10005817002044170020014B1878704700BFF7
:108D20004C17002038B5FEF7BAFB054600F024F9D1
:108D300004462846FEF7B9FB204638BD014B1868AB
:108D4000704700BF541700200A4B10B51B680C4633
:108D500083420CD3084B4FF47A7219680023A0FBAE
:108D6000010123F001FD01302060002010BD212011
:108D7000FCE700BF4817002054170020104B10B527
:108D80001A684FF47A73A0FB0301A2B1531E134279
:108D900011D1B2FA82F2C2F11F02C2F12004A2F193
:108DA000200301FA04F420FA02F2224321FA03F329
:108DB00042EA030010BD002323F0D6FCFAE700BF0F
:108DC00054170020C2072DE9F84F04460BD53F4A3F
:108DD000138801339BB21380FFF72AFE3C4B1B68BC
:108DE0000BB1FFF73FFEA3076DD500F0C5F8394F73
:108DF00000263D688046451BFEF751FBB246834680
:108E00003246334B1C6814B16369AB4214D9012E4E
:108E1000314B51D1D288022A4ED11E70002C4ED037
:108E20006369C7F800805D1B6561FFF71BFE58464C
:108E3000BDE8F84FFEF739BB23462A46C7F8008045
:108E40005969914209D8187994F804C0521A844596
:108E500088BF1C469B68002BF2D15846FEF725FBC5
:108E6000D4F814B0C4F814A0FEF719FB81462046CC
:108E7000FFF74CFE4846FEF718FB23694BB1FEF79F
:108E80000EFB814621692046FFF7AEFD4846FEF7FE
:108E90000CFBE36813B121682046984700F06CF89A
:108EA000D844A5EB080581460544FEF7F8FA0136DB
:108EB00083462246C846A4E700221A70AEE7022085
:108EC00000F09AF8B3E7BDE8F88F00BF4E17002016
:108ED00058170020441700205017002010B5FEF747
:108EE000DEFA034B1C78FEF7E0FA204610BD00BF07
:108EF000501700201FB500241C4B012118689A88C8
:108F0000029053F8060FADF80C201B7900903E201C
:108F10008DF80430FDF7EEFD02A88DF808408DF8BD
:108F20000C40FEF7FFFC694601208DF80040FEF77B
:108F3000BDFC4FF0904340F2FF319A6922F47F72FA
:108F400022F003029A610A4A11609A6A12F008023A
:108F5000FBD11A620120FEF7C3FC4FF48052054B8F
:108F6000C3F880211A6004B010BD00BF7AD102009E
:108F70001420004800E100E04FF090439A6A120785
:108F8000FCD4186A704700004FF09042936A1907AA
:108F9000FCD4136A116C5269520604D4CA1A022A0C
:108FA00001D899420ED1C21A012A98BF981CB0F17B
:108FB000FF3F28BF01304FF0904318649A6942F098
:108FC00040029A61054A13783BB14FF09041CB6B58
:108FD00043F00203CB63002313707047140B00208F
:108FE00082074FF0904200F00103916948BF43F0BF
:108FF00040030B4393617047830700F001020AD5D9
:109000000121084B42F0400219704FF09041CB6BA8
:1090100023F00303CB634FF090418B6923EA0203F3
:109020008B617047140B00204FF0904301285B695F
:1090300004D0022805D1C3F38010704703F001006B
:10904000704700207047000010B5FEF728FA4FF077
:10905000904304465B695A06074A03F0010003F097
:10906000510348BF40F002001360FFF7ABFE2046FB
:10907000BDE81040FEF719BA142000483E20FDF765
:1090800083BD08B5FDF76CF9FDF7A4F9FDF7A3F969
:10909000FDF7ACF9BDE80840FDF7B1B908B5FDF73B
:1090A000AFF9FDF7AEF9FDF7ADF9BDE80840FDF702
:1090B000ABB9000010B50446FDF7D8FA4FF47A7347
:1090C000B0FBF3F05C43074BB3FBF0F0B4FBF0F400
:1090D0000320B4FBF0F018B1BDE8104000F008B870
:1090E00010BD00BF40420F00000000000000000063
:1090F000013800D0FCE770472420704744207047B7
:109100004C2070479820704738B50446FEF7C0F9E8
:109110000546204623F0F2FC04462846FEF7BCF93B
:10912000204638BD70B504460E46FEF7B1F931460B
:109130000546204623F0A2FC04462846FEF7ACF97B
:10914000204670BD38B50546FEF7A2F9044628460C
:1091500023F0DCFC2046BDE83840FEF79DB9002333
:10916000F0B51D460439854201D11846F0BD4F685F
:10917000FC1A41F8044F52F825600135B4422CBF67
:109180004FF0000C4FF0010CA41B9F422CBF634614
:109190000CF101030C60E6E72DE9F04384460D462F
:1091A0004FF0000E02F14004BCF10F0F54F8408C58
:1091B00005F1400504F1400400F2BA806FF00F049D
:1091C0004FEA101C04FB0C004FEA8C1C072801EB33
:1091D0000C0502EB0C0440F2938051F80C60083847
:1091E000A3FB06671EEB060E2CBF4FF001094FF0E4
:1091F000000918EB0E0142F80C102CBF01220022CE
:109200006E68B944A3FB06674A4492192CBF01213A
:109210000021666801EB070C92194FF0000128BF8E
:1092200001216260AE686144A3FB066789192CBF07
:1092300001220022A66802EB070C89194FF00002F8
:1092400028BF0122A160EE686244A3FB0667921961
:109250002CBF01210021E66801EB070C92194FF0A9
:10926000000128BF0121E2602E696144A3FB06676B
:1092700089192CBF01220022266902EB070C8919EB
:109280004FF0000228BF012221616E696244A3FBF6
:10929000066792192CBF01210021666901EB070CBA
:1092A00092194FF0000128BF01216261AE6961444B
:1092B000A3FB066789192CBF01220022A66902EBD5
:1092C000070E89194FF0000228BF0122A161EE6943
:1092D0007244A3FB066792192CBF4FF0010E4FF0AA
:1092E000000E05F1200CE5690EEB070152194FF055
:1092F000000E28BF4FF0010E6546E2618E44203417
:109300002146800005EB000C654551F8042B40F028
:109310009E8104442368002213EB0E0328BF012220
:1093200044F8043B4FF0010E002AF3D1BDE8F0836E
:1093300055F8406CACF1100CA3FB06671EEB060E53
:109340002CBF4FF001094FF000091EEB08062CBF9F
:109350004FF001084FF0000844F8806C55F83C6C61
:10936000B944A3FB0667C84418EB06082CBF4FF0AE
:10937000010E4FF0000E54F87C6C0EEB070916EB53
:1093800008064FF0000E28BF4FF0010E44F87C6C29
:1093900055F8386CCE44A3FB06671EEB060E2CBFB7
:1093A0004FF001084FF0000808EB070954F8787CEB
:1093B0004FF0000817EB0E0728BF4FF0010844F8E4
:1093C000787C55F8346CC844A3FB066718EB060894
:1093D0002CBF4FF0010E4FF0000E54F8746C0EEBE2
:1093E000070916EB08064FF0000E28BF4FF0010EDC
:1093F00044F8746C55F8306CCE44A3FB06671EEB42
:10940000060E2CBF4FF001084FF0000808EB0709CB
:1094100054F8707C4FF0000817EB0E0728BF4FF090
:10942000010844F8707C55F82C6CC844A3FB06670F
:1094300018EB06082CBF4FF0010E4FF0000E54F849
:109440006C6C0EEB070916EB08064FF0000E28BFF8
:109450004FF0010E44F86C6C55F8286CCE44A3FB19
:1094600006671EEB060E2CBF4FF001084FF00008F8
:1094700008EB070954F8687C4FF0000817EB0E075B
:1094800028BF4FF0010844F8687C55F8246CC844A4
:10949000A3FB066718EB06082CBF4FF0010E4FF038
:1094A000000E54F8646C0EEB070916EB08064FF03B
:1094B000000E28BF4FF0010E44F8646C55F8206C84
:1094C000CE44A3FB06671EEB060E2CBF4FF001082F
:1094D0004FF0000808EB070954F8607C4FF00008D3
:1094E00017EB0E0728BF4FF0010844F8607C55F8D1
:1094F0001C6CC844A3FB066718EB06082CBF4FF092
:10950000010E4FF0000E54F85C6C0EEB070916EBE1
:1095100008064FF0000E28BF4FF0010E44F85C6CB7
:1095200055F8186CCE44A3FB06671EEB060E2CBF45
:109530004FF001084FF0000808EB070954F8587C79
:109540004FF0000817EB0E0728BF4FF0010844F852
:10955000587C55F8146CC844A3FB066718EB060842
:109560002CBF4FF0010E4FF0000E54F8546C0EEB70
:10957000070916EB08064FF0000E28BF4FF0010E4A
:1095800044F8546C55F8106CCE44A3FB06671EEBF0
:10959000060E2CBF4FF001084FF0000808EB07093A
:1095A00054F8507C4FF0000817EB0E0728BF4FF01F
:1095B000010844F8507C55F80C6CC844A3FB0667BE
:1095C00018EB06082CBF4FF0010E4FF0000E54F8B8
:1095D0004C6C0EEB070916EB08064FF0000E28BF87
:1095E0004FF0010E44F84C6C55F8086CCE44A3FBC8
:1095F00006671EEB060E2CBF4FF001084FF0000867
:1096000008EB070954F8487C4FF0000817EB0E07E9
:1096100028BF4FF0010844F8487C55F8046CC84452
:10962000A3FB066718EB06082CBF4FF0010E4FF0A6
:10963000000E54F8446C774416EB08064FF0000E09
:1096400028BF4FF0010E44F8446CBE44ACE555F819
:10965000046BA3FB06781EEB070E2CBF0126002629
:109660001EEB02022CBF4FF0010E4FF0000E4644DD
:1096700041F8042CB64447E601F18041013900EB82
:1096800081018842034600D970471B680A681BBAEB
:1096900012BA40F8042B41F80439F2E70023012202
:1096A0008360C0E90023704710B5044668B1806844
:1096B00030B16168890001F0C7FDA068FFF742FD85
:1096C00000230122C4E90023A36010BD42F21073FD
:1096D000994270B504460D4602D96FF00F0070BD77
:1096E00043688B4216D204212846FFF71BFD06462D
:1096F0000028F2D0A16859B16268920023F01DFAE7
:109700006168A068890001F09FFDA068FFF71AFD5D
:10971000C4E901560020E2E7884270B505460E46CE
:1097200003D04C681CB9FFF7BFFF00200DE0631E9B
:10973000A0005BB96A685C1C3368A2422B600ED241
:1097400021462846FFF7C2FF88B170BDB2680244C7
:1097500052F8042C0438002AECD1013BE9E7A86850
:10976000121B9200002100EB840023F00AFAA200F1
:10977000B168A86823F0E1F9D7E770B50E4601217A
:109780000446FFF7A3FF054688B9626801469200C8
:10979000A06823F0F6F9A36886EAE672002EA2EB31
:1097A000E6721A60B4BF4FF0FF33012323602846EE
:1097B00070BD4368DBB181685A1E9B007AB90020F6
:1097C0004FF0004351F82210194204D101302028F3
:1097D0004FEA5303F8D1C0EB421020307047C8184D
:1097E00050F8040C043B0028E9D1013AE6E718469A
:1097F0007047F8B50F4612F0030118BF0121436806
:1098000001EB9205AB420446164618D100212046D2
:10981000FFF7B3FF00BB0346B3421DD0FA5CD4F898
:1098200008C0D90023F0030501F0180102FA01F184
:109830005CF8052001330A434CF80520ECE7FFF7FC
:1098400033FF00230122A360C4E9002329462046F8
:10985000FFF73CFF0028D9D0F8BD2DE9F04112F008
:10986000030418BF0124436804EB9204A342074693
:109870008846154608D100213846FFF77EFF064688
:1098800088B13046BDE8F081FFF70EFF00230122CA
:10989000BB60C7E9002321463846FFF717FF06469D
:1098A0000028E8D0EDE7B8F1000FEAD0BB68C5EBBF
:1098B00084002A464146184423F03FF9002CE0D0AA
:1098C0002146B868FFF7D8FEDBE7F8B543680E46D7
:1098D0009B0093421DD3114699420CD1944600211E
:1098E0008C4518D1934204D2D21A0021F01823F0EB
:1098F00048F900201DE0876801F0030421F0030C03
:10990000E50057F80C40EC4014F0FF0F0FD1013187
:10991000E2E79C46E3E7876801F0030421F0030EC9
:10992000E50057F80E40EC4074540131D8E76FF071
:109930000700F8BDF8B505466C680846A4009442D7
:109940001CD2121B8E18002123F01BF93046224630
:10995000002310449A4213D10020F8BDAF6803F0F1
:10996000030123F0030CCE0057F80C10F14011F066
:10997000FF0F11D10133A342F0D1E9E71346FAE713
:10998000AF6803F0030123F00306CC00B95901339B
:10999000E14000F8011DDDE76FF00700DDE7F8B5F5
:1099A00006460D464C0901F01F07FFF702FF7368DA
:1099B0002844B0EB431F03D874B92FBB00200AE042
:1099C00010F01F0118BF012101EB50113046FFF7C5
:1099D0007DFE0028F0D0F8BD7368A00003F180423E
:1099E000013A121B9200A34207D800229B00043BBD
:1099F000191DE2D0B168CA50F9E7B168013B8D5832
:109A000011440D50043AEEE70021D6F804C0A3003B
:109A1000C7F1200EA445D1D9B5680134E85800FA41
:109A200007F20A43EA5020FA0EF10433F2E74368E2
:109A3000F0B44D09AB4203D301F01F0104D169B367
:109A4000F0BC0021FFF799BEE5B929B100259A00C5
:109A5000C1F1200C043ABBB9F0BC00207047846807
:109A6000561954F8266044F8226001325C1B944277
:109A7000F5D80025A200A342E7D986680134B55085
:109A80000432F8E70022F1E78768013BBE5826FA66
:109A900001F42C43BC5006FA0CF5DBE7002BDBD0BD
:109AA0000A46E3E770B543689A0033B94A68940000
:109AB00062B9181C18BF012016E08468144454F8D9
:109AC000044C043A002CF1D1013BEEE78D682E19CD
:109AD00056F8046C043C0EB9013AE9E793420DD8FC
:109AE0000ED39A000BB9184670BD8168043A8C58A1
:109AF000A9588C4202D803D3013BF3E70120F3E7D6
:109B00004FF0FF30F0E770B543689A0023B94A6818
:109B1000940052B99BB924E08468144454F8044C6E
:109B2000043A002CF3D1013BF0E78D682E1956F86A
:109B3000046C043C0EB9013AEBE7934202D9026887
:109B4000104670BD096801D24A42F9E70268002A4E
:109B500001DD002912DB002901DD002A10DB99005C
:109B60000BB91A46ECE78468043966586C58A6426B
:109B7000E6D801D25242E3E7013BF1E70122DFE7F9
:109B80004FF0FF32DCE71FB581EAE173A3EBE1732D
:109B900000290093B4BF4FF0FF3301230193012349
:109BA00001A90293CDF80CD0FFF7ADFF05B05DF829
:109BB00004FB90422DE9F04106460C46154602D0C2
:109BC000884231D12C460123D4F8048033604FEA17
:109BD0008803B8F1000F2FD141463046FFF776FDDC
:109BE000074630BBB368D4F808E01946044605467A
:109BF000A8452BD103EB8503DCB1726805F10108A0
:109C0000AA4207D841463046FFF760FD80BBB368E3
:109C100003EB85031A680021141928BF012143F8BA
:109C2000044B45460C46E7E7FFF776FD074600285C
:109C3000C8D03846BDE8F081A2681A4452F8042C16
:109C4000043B002AC8D108F1FF38C2E70A685EF871
:109C5000250014194FF0000C28BF4FF0010C2418F8
:109C600041F8044B2CBF0124002401356444BFE7B4
:109C70000746DEE7F0B516460023012285B0B04264
:109C800005460F46CDE90123039306D1014601A8FD
:109C9000FFF742FD044638BB01AEBD421DD1012392
:109CA0007468B2682B60A30024BBA9682046FFF744
:109CB00056FA70B34FF0FF366868A200A04224D96C
:109CC000AB68134419680432E1B1AA6852F8243031
:109CD000013B42F82430002406E039462846FFF7CD
:109CE0001BFD04460028DAD001A8FFF7DDFC204662
:109CF00005B0F0BDD11851F8041C043B0029D4D1A3
:109D0000013CD1E71E600134D8E7DED16FF00904D1
:109D1000EDE70446E8E7F8B50C68136805466343C9
:109D20000F46164616D511463846FFF7BBFE0028EB
:109D300006DB324639462846FFF79CFF40B1F8BDA6
:109D40003A4631462846FFF795FF0028F7D164428E
:109D50002C60F4E7FFF72DFFF0E7F8B50C68136807
:109D600005466343002B0F46164616DD114638465E
:109D7000FFF798FE002806DB324639462846FFF7F3
:109D800079FF40B1F8BD3A4631462846FFF772FFE9
:109D90000028F7D164422C60F4E7FFF70AFFF0E7F0
:109DA0001FB582EAE273A3EBE273002A0093B4BF0B
:109DB0004FF0FF3301230193012301AA0293CDF851
:109DC0000CD0FFF7CAFF05B05DF804FB2DE9F047A2
:109DD00000231546012286B0884280460E46CDE912
:109DE0000023CDE90232CDE9043305D16846FFF7FF
:109DF00093FC044650BB6E46A84506D1414603A8D5
:109E0000FFF78AFC044608BB03ADD6F804904FEA7E
:109E10008903B9F1000F23D16F68BB0057BB09EB71
:109E200007014046FFF752FC044678B90146404618
:109E3000FFF7A3FC044648B94FEA870AAAF1040ACF
:109E40000FBB32682B685343C8F8003003A8FFF7F4
:109E50002BFC6846FFF728FC204606B0BDE8F087DB
:109E6000B2681A4452F8042C043B002AD4D109F1F8
:109E7000FF39CEE7AA681A4452F8042C043B002AA2
:109E8000CDD1013FCAE7AB68D8F8082053F80A30B3
:109E90005244B1684846FFF77FF9013FCEE71FB54E
:109EA0000123009201AACDE90133CDF80CD0FFF7D0
:109EB0008DFF05B05DF804FB2DE9F04F9DB00290D9
:109EC00000911846002117460493FFF75CFE002816
:109ED00000F09E810323002401251793049919ABF8
:109EE0003846CDE90A54CDE90C45CDE90E44CDE91B
:109EF0001054CDE91245CDE9144416951893FFF797
:109F0000D1FDA04228DA029B33B9009BE3B90024BB
:109F100020461DB0BDE8F08F21460298FFF72DFCCA
:109F200004460028F1D00AA8FFF7BEFB0DA8FFF7F2
:109F3000BBFB10A8FFF7B8FB13A8FFF7B5FB0C217C
:109F400019A801F081F9E3E739460098FFF7E4FB2F
:109F500004460028E7D1DAE739460AA8FFF7DCFB18
:109F600004460028DFD10DAE04993046FFF7D4FB3C
:109F700004460028D7D1796810A802310D950A95BA
:109F8000FFF7A4FB04460028CDD1014610A8FFF737
:109F9000F4FB04460028C6D1022113A8FFF796FB64
:109FA00004460028BFD13046FFF703FC00F01F0035
:109FB0001F2872D0C0F11F0319460AA80393FFF7A8
:109FC000EEFC04460028AED103993046FFF7E7FCCB
:109FD00004460028A7D10B9DDDF8388005F1FF3B32
:109FE00008F1FF33ABEB030A4FEA4A194946304602
:109FF0000193FFF7D4FC0446002894D14FEA8A0A63
:10A0000031460AA8FFF77FFD002848DA4946304666
:10A01000FFF70DFD0446002885D1019B05F1804521
:10A020004FEA830AAAF1040307936FF0030303FBCB
:10A0300008F3013D0993C8EBC863AD000893019B89
:10A040009B453BD8029B53B110A91846FFF764FB10
:10A0500008BB049B3A681B685343029A1360009B39
:10A06000002B3FF460AF03990AA8FFF7E0FC90B91A
:10A070003B680AA900980A93FFF74EFB01460028A7
:10A0800040F0C4800098FFF77EFD00287FF44BAFBE
:10A090000123009A1360044645E703949BE7129A54
:10A0A0000AA952F80A300846013342F80A3032460B
:10A0B000FFF753FE04460028A2D034E7DDF83080D5
:10A0C0000F9A08EB05030999069352F80A2058F8ED
:10A0D00005306E189342A5F104010591DDF8489012
:10A0E00079D34FF0FF3349F80630BBF1010F0EBFB3
:10A0F000002308EB050353F8083C1993059B58F817
:10A1000003301A93069B1B681B9359F806300133E2
:10A1100049F80630129A0021935913A8013B935134
:10A12000FFF72BFB0028B6D1019B0F9A002B6BD0B9
:10A13000079BD158159B196052F80A2013A95A6041
:10A14000129B08469A59FFF7AAFE0028A3D116A928
:10A1500013A8FFF7D8FC0028DCDC129B0DA99A5944
:10A1600013A8FFF79CFE002895D1089B13A80BEBC2
:10A1700003084FEA48184146FFF711FC00288AD12E
:10A180000AA9084613AAFFF7E8FD014600283DD1B9
:10A190000AA8FFF7F8FC002819DA0DA913A8FFF7A1
:10A1A000BBFA00287FF477AF414613A8FFF7F7FB0F
:10A1B00000287FF470AF0AA913AA0846FFF7ABFD89
:10A1C00000287FF468AF129A9359013B93510BF129
:10A1D000FF3B043D33E7059958F801C08AB11946A1
:10A1E0000023184640EA0C0022F0BEFA00234FF08C
:10A1F000FF328B4208BF824200D2104649F8060067
:10A2000073E74FF0FF30F9E7019993E70C468AE6D0
:10A210006FF00B047CE670B504460D461046002135
:10A220001646FFF7B0FC002824DB2A4633462146B9
:10A230000020FFF741FE054638B1284670BD324682
:10A2400021462046FFF767FD90B900212046FFF721
:10A250009AFC0028F3DB31462046FFF754FC002827
:10A26000EBDB324621462046FFF777FD0028F2D08F
:10A270000546E2E76FF00905DFE7000018B112B10B
:10A280001160002070470148704700BF009FFFFF2A
:10A29000054B53F8042C22B1083313F8101C8142EB
:10A2A000F7D11046704700BF7CD302004422002142
:10A2B00022F067BC10B5044698B1006C28B1642147
:10A2C00000F0C2FF206CFEF73DFFE06B18B1236881
:10A2D0009B691B6A98472046BDE81040442100F066
:10A2E000B3BF10BD036853B15B78022B07D10429BB
:10A2F00007D10023044AC36002611846704703482F
:10A3000070470348704700BF7DA20000009FFFFF19
:10A31000809FFFFF38B504460D4679B144220021E5
:10A3200022F02FFCAB69DB699847E06340B1256000
:10A3300004212046FFF7D6FF002038BD0148FCE786
:10A340000148FAE7009FFFFF809EFFFF10B504461B
:10A3500002F0F4FA2046BDE81040FEF7F3BE10B557
:10A3600024210120FEF7DEFE044608B102F0E2FAE5
:10A37000204610BD13460A46022102F0E5BA10B588
:10A38000044602F00AF92046BDE81040FEF7DABEA6
:10A3900010B524210120FEF7C5FE044608B102F0E5
:10A3A000F8F8204610BD02F019B902F0FCB802F02E
:10A3B00038BA02F08EB902F04AB902F011B92DE9AB
:10A3C000F047B2F5C07FADF50A7D074688461546D1
:10A3D00000F29D804FF4D072002122A822F0D1FB20
:10A3E0000DA802F0D6F82B0A00248DF89A303023FD
:10A3F00028AE41462A4630468DF89F30ADF8984049
:10A400008DF89B5022F099FB8023735523460DF164
:10A41000140803F808300133202BFAD14FF480726E
:10A4200041460DA802F0BFF80446002851D1064667
:10A4300019351022002101A822F0A3FBAA460DF134
:10A4400087090DF1030309F1100113F8012F19F821
:10A45000010F424049451A70F7D101ABBAF1100F14
:10A460001A464FF001010DA894BFAAEB0A0AAAF1FF
:10A47000100A02F0B5F8044658BBBAF1000FE0D15B
:10A4800016AB9819102201A922F057FB9DF88B30CA
:10A4900010360133302E8DF88B30CAD14FF48072D4
:10A4A00016A90DA802F07FF8044690B93D4607F1C1
:10A4B00030061EAB1A4601210DA802F091F80446A1
:10A4C00038B9284610221EA9103522F036FBAE42BC
:10A4D000EFD10DA802F061F84FF4D07122A800F07E
:10A4E000B3FE302116A800F0AFFE2021404600F058
:10A4F000ABFE102101A800F0A7FE1CB130213846A8
:10A5000000F0A2FE20460DF50A7DBDE8F0876FF051
:10A510003704F7E72DE9F0418CB004460E463022AF
:10A520000021684622F02DFB4FF0000804F12007BF
:10A530000DEB080304F1100111F8012D0132D2B224
:10A540000A700AB9A142F7D122460121384602F029
:10A5500047F80546E8B908F11008B8F1300FE7D11F
:10A56000731E0DF1FF322F3612F8011F13F8010F81
:10A570004140B3421170F7D14FF4807269463846BA
:10A5800002F011F8054620B9102208A9204622F051
:10A59000D4FA6846302100F057FE28460CB0BDE8DA
:10A5A000F0812DE9F04117468269E0B0B2F5C07F35
:10A5B000044688461E4644D8C2F5C073B34240D311
:10A5C000C6F5C0739B1ABB423BD34FF4C072002147
:10A5D000684622F0D6FA636CA2696946A06C984777
:10A5E00028B16FF03305284660B0BDE8F081A56959
:10A5F0003EB1636C32466946A06C98470028F0D1A2
:10A600003544B8F1000F07D037B10DEB05003A46DD
:10A61000414622F092FA3D442A4669466846FFF7D1
:10A62000CEFE054638B969462046FFF773FF05465A
:10A6300008B9012323614FF4C071684600F004FE9D
:10A64000D1E76FF03705CEE710B54C220021044664
:10A6500022F097FA4FF0FF33236110BD0023FFF77C
:10A66000A0BF2DE9F04105468846144688B0202257
:10A670000021684605F120061F4622F082FA304686
:10A6800001F087FFAB69C5E911840BB92023AB61E9
:10A690002C69002C05DAAC692F2C8EBF0024013404
:10A6A000640842F210734FF48072EB6169463046E1
:10A6B00001F079FF28B923460E9A39462846FFF75C
:10A6C00070FF08B0BDE8F0812DE9F041B2F5806F70
:10A6D00090B005460F4616469846169C5CD8B4F5D1
:10A6E000807F5CD83022002104A822F04AFA2A692F
:10A6F000EB699A4201DC6B699BB1224641462846D0
:10A70000FFF7ACFF044620BB05F120082EBB04A9CF
:10A710002846FFF7FFFE044698B92B6901332B61E9
:10A720000FE0002CF0D02246414604A8FFF747FE78
:10A73000044630B904A92846FFF7ECFE0446002879
:10A74000E2D0302104A800F07FFD1021684600F01F
:10A750007BFD204610B0BDE8F08105F1100212F833
:10A76000013D0133DBB213700BB9AA42F7D16B463E
:10A770002A460121404601F033FF04460028E0D17B
:10A78000102E344628BF102438462246694622F04F
:10A79000D4F92744361BB9E76FF03504D9E76FF0D9
:10A7A0003704D6E7002307B50093FFF78DFF03B00A
:10A7B0005DF804FB70B50C460546114620461A4666
:10A7C000FFF704FB064698B96B6E33B92A1D214684
:10A7D0002046BDE87040FFF71EBD2368002B09DB53
:10A7E0002046FEF7E6FFAB6DB0EB430F09D9184EDC
:10A7F000304670BD01462046FFF7C5F90028EFD06E
:10A80000F5E76B6E2046984706460028F0D10435E0
:10A810002368002B04DA00212046FFF7B4F968B959
:10A8200029462046FFF76FF90028E1DB2A4621463A
:10A830002046FFF71FFA0028F2D006E02A462146FC
:10A840002046FFF768FA0028E2D00646D0E700BFAE
:10A8500080B0FFFF38B50C46051D29462046FFF79E
:10A8600052F9002801DA002006E02A462146204657
:10A87000FFF700FA0028F0D038BD38B50C46054681
:10A88000114620461A46FFF746FA28B921462846BF
:10A89000BDE83840FFF7DEBF38BD10B50446FEF70F
:10A8A00003FF04F10C00FEF7FFFE04F11800BDE801
:10A8B0001040FEF7F9BE036B2BB1C36B002B0CBF2E
:10A8C0000220012070471846704710B50446FEF775
:10A8D000E5FE04F10C00FEF7E1FE04F11800BDE80E
:10A8E0001040FEF7DBBE38B50025044600F8045BD7
:10A8F000FEF7D4FE04F11000FEF7D0FE04F11C00B8
:10A90000FEF7CCFE04F12800FFF7DFFF04F14C0056
:10A91000FEF7C4FEC4E91655C4E91855C4E91A5532
:10A92000C4E91C55A56738BD08B1FFF7B6BF70472D
:10A9300070B5044660B3036E012B12D00430FEF7ED
:10A94000B3FE04F11000FEF7AFFE04F11C00FEF7A9
:10A95000ABFE04F12800FFF7E7FF04F14C00FEF71F
:10A96000A3FE636F8BB92046BDE870407C2100F0E8
:10A970006BBC06FB0500FFF7D7FF0135D4E91D03CB
:10A98000AB42F6D8FEF7DEFBEDE700252426F5E71F
:10A9900070BD0000F0B50E4687B00546012106F1F6
:10A9A0001800FFF7F0F8074650B92846FFF783FF75
:10A9B00001287BD139463046FFF7E5F8002801DA57
:10A9C0003B4C70E006F10C0439462046FFF7DBF8FB
:10A9D0000028F5DB2F1D39463046FFF794F8002894
:10A9E000EEDA39462046FFF78EF80028E8DA6846A6
:10A9F000FEF754FE03A8FEF751FE234622466946A1
:10AA00002846FFF7D7FE0446002846D13346324693
:10AA100003A92846FFF7CEFE044600283DD1AB69C6
:10AA20008BBB03A903220846FFF7BAF904460028A6
:10AA300033D1039B002B1ADB03AA33461146284669
:10AA4000FFF7B8FE044640BB03AA05F11C031146FC
:10AA50002846FFF712FF0446F8B903A96846FFF736
:10AA600052F8A4F59944002808BF002415E00021FD
:10AA700003A8FFF788F80028DED003A93A46084665
:10AA8000FFF749F9D2E703AA05F11003114628465A
:10AA9000FFF7F3FE04460028CED06846FEF704FE1A
:10AAA00003A8FEF701FE204607B0F0BD014CFAE70F
:10AAB00080B3FFFF80B0FFFF036810B559184FF057
:10AAC000000428BF0124016013781C44147010BDD9
:10AAD000036810B514788B4238BF013C14700368CA
:10AAE0005B1A036010BD0923012270B500210446E2
:10AAF0008EB0CDE9022305A824228DF8031004901E
:10AB000022F03FF810212046FEF7E0FD0546002820
:10AB100040F02882A36801A81A68196A01920DF111
:10AB20000302FFF7C9FFA3680DF10302596A01A8E8
:10AB3000FFF7C2FFA3680DF10302D96A01A8FFF76E
:10AB4000C7FFA3680DF10302196B01A8FFF7C0FF4F
:10AB5000A3680DF10302596B01A8FFF7B9FFA368C1
:10AB60000DF10302996B01A8FFF7B2FF019AA368E8
:10AB70001A609DF903105B68002901938DF803505A
:10AB80000DF1030280F2F181494201A8FFF7A0FF15
:10AB9000A3680DF10302596A01A8FFF78DFFA368AE
:10ABA0000DF10302996A01A8FFF786FFA3680DF172
:10ABB0000302196B01A8FFF78BFFA3680DF10302D5
:10ABC000596B01A8FFF784FFA3680DF10302996B8D
:10ABD00001A8FFF77DFFA3680DF10302D96B01A85F
:10ABE000FFF776FF019AA3689DF903105A609B68EE
:10ABF0000DF103020193002399428DF8033080F296
:10AC0000B881494201A8FFF763FFA3680DF1030271
:10AC1000996A01A8FFF750FFA3680DF10302D96AF2
:10AC200001A8FFF749FFA3680DF10302596B01A8C2
:10AC3000FFF74EFFA3680DF10302996B01A8FFF720
:10AC400047FFA3680DF10302D96B01A8FFF740FF8E
:10AC5000019AA3689DF903109A60DB680DF1030265
:10AC60000193002399428DF8033080F28681494296
:10AC700001A8FFF72DFFA3680DF10302D96A01A80F
:10AC8000FFF71AFFA3680DF10302D96A01A8FFF7C5
:10AC900013FFA3680DF10302196B01A8FFF70CFF66
:10ACA000A3680DF10302196B01A8FFF705FFA36864
:10ACB0000DF10302596B01A8FFF7FEFEA3680DF129
:10ACC0000302D96B01A8FFF703FFA3680DF103028C
:10ACD000196A01A8FFF7FCFEA3680DF10302596A87
:10ACE00001A8FFF7F5FE019AA3689DF90310DA6049
:10ACF0001B690DF103020193002399428DF8033083
:10AD000080F23F81494201A8FFF7E2FEA3680DF1FE
:10AD10000302196B01A8FFF7CFFEA3680DF1030230
:10AD2000196B01A8FFF7C8FEA3680DF10302596B68
:10AD300001A8FFF7C1FEA3680DF10302596B01A83A
:10AD4000FFF7BAFEA3680DF10302996B01A8FFF7A4
:10AD5000B3FEA3680DF10302596A01A8FFF7B8FE1C
:10AD6000A3680DF10302996A01A8FFF7B1FE019AE9
:10AD7000A3689DF903101A615B690DF10302019349
:10AD8000002399428DF8033080F2FF80494201A8E8
:10AD9000FFF79EFEA3680DF10302596B01A8FFF7B0
:10ADA0008BFEA3680DF10302596B01A8FFF784FE27
:10ADB000A3680DF10302996B01A8FFF77DFEA3685C
:10ADC0000DF10302996B01A8FFF776FEA3680DF160
:10ADD0000302D96B01A8FFF76FFEA3680DF1030210
:10ADE000996A01A8FFF774FEA3680DF10302D96AFE
:10ADF00001A8FFF76DFE019AA3689DF903105A613F
:10AE00009B690DF103020193002399428DF80330F1
:10AE100080F2BF80494201A8FFF75AFEA3680DF1F6
:10AE20000302996B01A8FFF747FEA3680DF1030227
:10AE3000996B01A8FFF740FEA3680DF10302D96BDF
:10AE400001A8FFF739FEA3680DF10302D96B01A831
:10AE5000FFF732FEA3680DF10302996B01A8FFF71B
:10AE60002BFEA3680DF10302596B01A8FFF724FE26
:10AE7000A3680DF10302196A01A8FFF729FEA36870
:10AE80000DF10302596A01A8FFF722FE019AA36897
:10AE90009DF903109A61DB690DF103020193002310
:10AEA00099428DF8033078DA494201A8FFF710FE85
:10AEB000A3680DF10302D96B01A8FFF7FDFDA3689C
:10AEC0000DF10302D96B01A8FFF7F6FDA3680DF1A0
:10AED0000302D96B01A8FFF7EFFDA3680DF1030290
:10AEE000196A01A8FFF7E8FDA3680DF10302996A4A
:10AEF00001A8FFF7EDFDA3680DF10302D96A01A8CF
:10AF0000FFF7E6FDA3680DF10302196B01A8FFF737
:10AF1000DFFDA3680DF10302596B01A8FFF7D8FD0F
:10AF2000019BA1689DF90320CB6122EAE2730B62C9
:10AF300000230193082360680133984231D8002A26
:10AF400010DA039B049903F180435242013B41F81C
:10AF500023202046224602A9FEF78CFE10B94FF0AE
:10AF6000FF33236028460EB070BD01A8FFF7A4FD93
:10AF70000EE601A8FFF7A0FD47E601A8FFF79CFD3C
:10AF800079E601A8FFF798FDC0E601A8FFF794FD58
:10AF900000E701A8FFF790FD40E701A8FFF78CFD4F
:10AFA00086E7019E41F82360C6E7000038B50D46EC
:10AFB0000446FFF7BDFC032D257027D1154B012555
:10AFC00063660823144AC4E90153E260134AC4E9E2
:10AFD00007536262C4E91353114AC4E90A53A363D5
:10AFE000104B6265C4E90F350F4A104BC4E90C25BC
:10AFF000A3646564201DFEF7DCFBA06504F14C0032
:10B00000FEF7D7FBC4E91705002038BD0023084828
:10B010002370FAE7E7AA000034D50200B4D4020096
:10B0200014D50200F4D40200D4D40200180B00207E
:10B0300080B1FFFF2DE9F041202B8AB080460E46FB
:10B0400017461D4609D9002302AA2946384600F0B2
:10B0500005F9044608BB202502AFD8F800108DF88A
:10B0600004608DF8055008F1040681B10123022225
:10B07000C8F8003001A9304601F0B2FE044660B9BC
:10B080002A463946304601F0ABFE044605E030461C
:10B0900001F094FE04460028E8D002A8202100F028
:10B0A000D3F820460AB0BDE8F0812DE9F043002630
:10B0B0008046044637466FF03B05B146A3B0D8F84A
:10B0C0006C309F420BDB002E08BF6FF03C0502A8DE
:10B0D000802100F0B9F8284623B0BDE8F083D4F809
:10B0E0008030256F012BCDF8049001AB4FF080022A
:10B0F00002A9606F08BF0126A84705460028E6D1CF
:10B10000019B53B102AAF9B24046FFF793FF002812
:10B11000E2D1A36F019A1344A36701371434CEE739
:10B1200038B5002504462822C5662946703021F02E
:10B1300028FD204640F8045B01F03CFEE26E012A47
:10B140000BDC142303FB024304492020C3E91C1534
:10B1500001210A44C3E91F01E26638BDA3B2000021
:10B160002DE9F041202A88B006468846174667D860
:10B170004FF48175013D5DD0F36E002B5DD03046FC
:10B18000FFF793FF0446D8BB034632460120D6F8AA
:10B190006CE0A6453CDC0028ECD01F2BEAD920222D
:10B1A00000216846351D21F0ECFC6946284601F077
:10B1B0001EFE044620BB284601F0FEFD284601F095
:10B1C000F9FD2146284601F0F9FD0446C0B92022C8
:10B1D0006946284601F004FE044688B903466A46DB
:10B1E0002021684600F03AF8044648B90346142185
:10B1F000F26E9A4219DC3A466946404621F09DFCBF
:10B200002021684600F020F8204608B0BDE8F08113
:10B21000D2E91EC18C4538BF0020D2F8801001341D
:10B22000012908BF63441432B3E701FB036501330E
:10B23000A867DEE76FF03B04E2E76FF03F04DFE76B
:10B240006FF03B04E0E700000A4619B1024B002111
:10B250001B681847704700BF1C0B0020F0B51C4648
:10B260009BB0064668460F46154601F0A3FD2146F1
:10B27000684601F0A3FD044658B93A46314668468F
:10B2800001F0AEFD044620B92946684601F0AFFD45
:10B290000446684601F090FD20461BB0F0BD00203A
:10B2A00070472DE9FF47994600230E461746009345
:10B2B00001F0FCFF054690BB37F0030A07F00308D6
:10B2C0000CD0CDE9016A039001F0C4FF58BB04AB78
:10B2D00013E9070001F002F901F0D2FFB8F1000F05
:10B2E0001BD004220023CDF804D0CDE9022301F0C5
:10B2F000B1FF0446C8B904AB13E9070001F0EEF84A
:10B3000001F0BEFF2046009A5644C300013022FAE5
:10B3100003F3804506F8013BF7D1C9F800702846D1
:10B3200004B0BDE8F0870546F9E70546F7E7FFF703
:10B33000B6BF13B5044622B10024009400F022FAEF
:10B340000446204602B010BD1B0603F0706300F0F7
:10B350000F000902034301F47061120402F4702229
:10B360000B431343014A1360704700BF0020024C97
:10B3700030B501B10139074CE568ED03FCD4120783
:10B3800043F0004302F080521843024342EA012195
:10B39000616030BD0020024CF0B58DB005AC84E892
:10B3A0000700069D1E469D4228BF1D46129815B3F4
:10B3B0000BB3002700F5181000F241104402CDE94C
:10B3C0000A37631B09930CAB43F8185D029593E8A9
:10B3D00003008DE803000CAA059B12E9070000F0AA
:10B3E00047FFAE4207D93946721BA01B0DB0BDE81E
:10B3F000F04000F03BBF0DB0F0BD30B51D4691B040
:10B4000001AC84E807000146DDE90223D8004ABF09
:10B4100003326A0022F0030204A8FFF78AFF04A89F
:10B4200000F0C6F914992A4601F5181101F24111EC
:10B430004C02611B002308A8FFF77BFF04F5007195
:10B4400000232A46491B0CA8FFF773FF0CA800F045
:10B45000AFF908A904A800F085F911B030BDF0B526
:10B460001F4691B001AC84E8070016993A46DDE921
:10B47000025601F5181101F241114C02E11B0023A3
:10B4800008A8FFF756FF04F500713A460023C91BD0
:10B490000CA8FFF74EFF0CA800F08AF9F30048BF94
:10B4A000EA1C019954BF7A0022F00302334604A833
:10B4B000FFF73FFF04A800F07BF904A908A800F0FB
:10B4C00051F911B0F0BD10B58CB005AC84E807009F
:10B4D0000E9A029302F5181202F5A0725202CDE9FB
:10B4E0000923002206AB93E803008DE803000B92CA
:10B4F0000CAA059B12E9070000F0BAFE0CB010BDC3
:10B500000122054B9A60DA68D203FCD4D86820F097
:10B510000F000004000C70470020024C2DE9F04B96
:10B520004FF000088AB003AC84E8070081461C464F
:10B530004646059F07AD07F0805B049B434502D854
:10B540000AB0BDE8F08B139B13B9B31E012B0AD9C7
:10B55000129BCDE90794099700965BB195E8070027
:10B560002346FFF719FFBBF1000F00D1A1440136BC
:10B57000A044E2E7234695E80700FFF7A4FFF2E7BF
:10B58000014B1868704700BF0040024C014B18681F
:10B59000704700BF0410024C014B1868704700BF91
:10B5A0003010024C014B1868704700BF0010024C6D
:10B5B000014B1860704700BF0810024C014B186027
:10B5C000704700BF4010024C014B1860704700BF2D
:10B5D0004410024C014B1860704700BF3410024CFD
:10B5E0000022014B1A6070470010024C024A136897
:10B5F00043F00103136070470010024C43F2040251
:10B60000014B1A60704700BF0010024C024A1368D9
:10B6100043F03003136070470010024C044B1A686B
:10B6200042F480721A601A6822F480721A607047BD
:10B630000010024C024A136843F4806313607047A1
:10B640000010024C034A136823F4702343EA0040BD
:10B65000106070470010024C0268044B1A60426888
:10B660005A6082689A60C268DA6070471010024CB3
:10B67000034A1368DB07FCD4024B1860704700BF15
:10B680003010024C2010024C82B01FB504AC04E90B
:10B6900007000A9A029907938A4228BF0A46039B29
:10B6A0000798D90044BF033222F0030222F0704110
:10B6B0000D4A03F0E0431060099A0C4802F0E042A2
:10B6C00042F000520A430260002243F00053019C02
:10B6D0000B430749426084600B60064B1A6004B05C
:10B6E000BDE8104002B070470000024C0800024C58
:10B6F0001800024C3400024C3F22044B1A60102206
:10B7000043F8142C03229A60704700BF3000024CAB
:10B71000024A13689B07FCD4704700BF3C00024CF0
:10B72000034B1B6813F0240F14BF04200020704744
:10B730002800024C08B5FFF7F3FF084B1B6823F401
:10B740007F4323F0EF03002B14BF042300230343A4
:10B750001EBF0122024B1A6008BD00BF3C00024C14
:10B76000FCFFFF3F032208B5054B186019615A63BF
:10B77000FFF7C2FFFFF7CCFFBDE80840FFF7DABFD5
:10B780000000024C10B522F0704200F11004C0E934
:10B790000014826041B1826803F0704313438360F8
:10B7A000029BC360204610BD836843F08043F6E7E8
:10B7B00001234360C36843F02003C360836843F000
:10B7C000005383607047C368DB0658BFC368C36813
:10B7D00003F00F03042B0ED8012202FA03F313F037
:10B7E0001A0F08D0C36801F01F0143EA0123C360A8
:10B7F0008368194481607047426810B5182A03466F
:10B8000009D0202A1BD0102A28D1154A1268D40149
:10B8100009D4012012E0124A12689001F9D50A6891
:10B8200042F008020A600F481A6882424FF0000096
:10B830000DD10A6842F040020A60586010BD084A03
:10B8400012685201E5D50A6842F00402EAE7064CA4
:10B85000A242F3D10A6842F08002EDE70720EDE74B
:10B860000404024C002400200124002007B50B46EC
:10B8700007490968C90708D5002100920246084611
:10B8800000F0CCF903B05DF804FB0120FAE700BF3B
:10B890000404024C07B50B4607490968C90708D5D7
:10B8A000009201210246002000F0B8F903B05DF8D3
:10B8B00004FB0120FAE700BF0404024C1FB5094C49
:10B8C0002468A4070CD5CDE900120021069C0122B2
:10B8D000CDE902340346084600F0CCF904B010BDAF
:10B8E0000120FBE70404024C1FB5094C2468A4079F
:10B8F0000CD5CDE900120122069C1146CDE9023497
:10B900000346002000F0B6F904B010BD0120FBE7AB
:10B910000404024C1FB5094C246864070CD5CDE91A
:10B9200000120021069C0222CDE90234034608469B
:10B9300000F0A0F904B010BD0120FBE70404024CA4
:10B940001FB5094C246824070CD5CDE9001200214D
:10B95000069C0322CDE902340346084600F08AF92A
:10B9600004B010BD0120FBE70404024C1FB5094CD4
:10B97000246824070CD5069CCDE90012CDE90234D9
:10B98000032203460121002000F074F904B010BD29
:10B990000120FBE70404024C1346054A1268D20555
:10B9A00004D50A460146002000F0A2B901207047E4
:10B9B0000404024C13B5074C2468E40508D5009331
:10B9C00013460A460146002000F09EF902B010BD61
:10B9D0000120FBE70404024C13B5074C2468E4057E
:10B9E00008D5009313460A460146002000F0B4F93A
:10B9F00002B010BD0120FBE70404024C37B5154628
:10BA00004A6804463AB18C680093096845EA040321
:10BA1000FFF7B8FE0446204603B030BD2DE9F04FD5
:10BA2000D3B0CDE90231042100238446CDE90513CA
:10BA300007CA03AE07AB5E9D619F629C049683E8D4
:10BA40000700BCF1000F40F0C88031461846FFF7F0
:10BA5000D3FE0646002840F0BC805D9A0AAB07CAB8
:10BA600083E807005F9B609A494201F00F080021BC
:10BA700052685B684FF0100A13445B4203F00F09F1
:10BA80007B680D915B420193AB681291DA0048BF6D
:10BA90006B68524642BF033323F003036B60A36815
:10BAA000DB0041BF6368033323F0030363605F9BE4
:10BAB0005B680093609BD3F804B0009B5B444B44ED
:10BAC000CDE90E316B685B4203F00F03CDE9101333
:10BAD000636815915B4203F00F03CDE9131316ABB6
